:100AFA000D0A57656C636F6D6520546F20596958EC
:0A0B0A00696E456C6563210D0A0059
:0B0B660012055C1204A2E4FF0209F07B
:1008020090004E74C0F0A374A8F0A37401F0A3F09A
:1008120090004474FFF0A3F0A3F0E4A3F090003E34
:10082200740CF0A37429F0A374ABF0A3747CF0E40D
:10083200A3F0A304F090005874C0F0A374A8F0A32E
:100842007401F0A374C7F090003C7413F0A3748891
:08085200F09000577402F0223F
:1008A300900056E0703D900057E0700BFF1208E790
:1008B300BFFF0280118027900057E0B40111E4FFCD
:1008C30012095FBFFF079000567401F022800FE406
:1008D300FF1209C2BFFF079000567403F022E49091
:0408E3000056F022A9
:05078A00900062EFF099
:10078F007B017A007900120003900063EEF0A3EF73
:10079F00F0900000E090005CF0900001E090005DB0
:1007AF00F0900002E090005EF0900003E090005F98
:1007BF00F0900004E0900052F0900005E09000539C
:1007CF00F0EF24F8FFEE34FFFE781E7C007D017BF6
:1007DF00017A007908120425900062E0FF7B017A0C
:1007EF0000791EA3E0FDA3E0900069CDF0A3EDF02A
:0307FF000201CF25
:10070600E4900060F0A3F0120802120AA4120B662D
:100716001208A312067F900055E0FF30E00A54FE4F
:10072600F0E4FF12078A804CC3900061E094B89011
:100736000060E0940B403D900056E06403702E90FC
:100746000055E054FDF0781E7C007D017BFF7A0A9F
:1007560079FA7E007F171204257B017A00791E90B4
:100766000069E4F0A37417F0E4FF1201CFE49000EF
:1007760060F0A3F0900061E004F07094900060E0F7
:0407860004F0808C6F
:100A8400E4FDFCE4FBFAC3EB9FEA9E50070BBB00BA
:0F0A9400010A80F20DBD00010CED64054C70E409
:010AA3002230
:080B710041005703410056004A
:040AC200FF12088295
:100AC600E4FFC2B7FED2B7EF25E0FFA2B4E4334F8E
:080AD600FFC2B70EEEB408EDFB
:010ADE0022F5
:10085A00E0FBA3E475F00112048CA9F0FA12044B30
:10086A00FF120882900072E0FBA3E475F001120403
:08087A008CA9F0FA12044BFFF7
:10088200E4FEC2B7EFA806088002C333D8FC30E703
:1008920004D2B58002C2B5D2B70EEEB408E4C2B734
:0108A2002233
:080B2C00AB07C2B6AE04AF0531
:0E0B3400AD07AC06ECFF120882AF0502088286
:100B4200AB05C2B6120B347F05120882AF0312083E
:040B520082D2B62273
:100B1400AB05AA04C2B6120B347F06120882AE02D9
:080B2400AF03120B34D2B6221C
:0B092A00900064EBF0A3EAF0A3E9F0FA
:10093500C2B6120B347F04120882E4FDFCD390008A
:1009450068E09D900067E09C400D9000641208717E
:090955000DBD00010C80E6D2B6D4
:01095E002276
:080A62007B10E0FF7D017C0028
:100A6A00AA07120B2EEAC43354E024084405FF12E5
:0A0A7A000882AF03120882D2B622F0
:070A1C00E0FAA3E0FB7C00FF
:100A2300A907120B2EE9C43354E024084406FF122D
:0C0A33000882AE02AF03120B34D2B622D0
:10099400900071EFF0A3EBF0A3EAF0A3E9F0120BDF
:1009A4002E900071E0C43354E024084407FF120879
:0E09B40082A312085A90007212085AD2B6227C
:0F0B5600C2B6120B347F01120882120AC6D2B641
:010B6500226D
:090ADF00900062E0FF7D037C0041
:100AE800120B2CEBC43354E024084401120AC2D27E
:010AF800B647
:010AF90022DA
:100A3F00120B2CEBC43354E024084402120AC2AD4B
:100A4F0007ED7D00FC120AC6ED2FFDE43CD2B6FE89
:020A5F00AF05E1
:010A61002272
:10000300900066EBF0A3EAF0A3E9F0900065EFF04F
:100013007D267C00120A3F900069EEF0A3EFF04EBC
:100023007003FEFF22D390006AE094B4900069E06D
:10003300940540077405F0A374B4F0900065E0FFE5
:100043007D287C00120A3F90006BEEF0A3EFF0A333
:10005300EEF0A3EFF0EE5407FE90006BF0A3EFF089
:10006300C2B6120B34900065E0C43354E02418FF89
:10007300120882900069E0FEA3E0FF90006CE02F7D
:1000830090006BE03EC394085050E490006FF0A3DF
:10009300F0900069E0FEA3E0FFC3900070E09F9042
:1000A300006FE09E400302019B120AC6900071EFAD
:1000B300F0900066E0FBA3E0FAA3E0F9EF1204641A
:1000C300900067E475F001120476900070E004F08C
:1000D300700690006FE004F080B790006BE0FEA321
:1000E300E0FFC3E49FF074089E90006BF0E490007F
:1000F3006FF0A3F090006BE0FEA3E0FFC3900070ED
:10010300E09F90006FE09E5031120AC6900071EF9D
:10011300F0900066E0FBA3E0FAA3E0F9EF120464B9
:10012300900067E475F001120476900070E004F02B
:10013300700690006FE004F080BAD2B6C2B6E4FF56
:10014300FE120B34900065E0C43354E02418FF1210
:100153000882900069E0FEA3E0FFC3900070E09F77
:1001630090006FE09E5031120AC6900071EFF0903C
:100173000066E0FBA3E0FAA3E0F9EF120464900049
:1001830067E475F001120476900070E004F07006E5
:1001930090006FE004F080BAD2B6900069E0FEA34D
:1001A300E0FF90006EE02FF090006DE03EF09000D5
:1001B30065E0FF90006D7D28120A1C9000657B406E
:0B01C300120A64900069E0FEA3E0FF58
:0101CE00220E
:1001CF00900066EBF0A3EAF0A3E9F0900065EFF082
:1001DF00E4FDFC120AE8EF540F64226028E0FF7B75
:1001EF00017A00795C7D0C7C00120994900052E03A
:1001FF00FEA3E07C002400FBEC3EFA900065E0FFDC
:10020F007D10120A23900065E0FF7D247C00120A06
:10021F003F90006BEEF0A3EFF0A3EEF0A3EFF0EE44
:10022F005407FE90006BF0A3EFF0C2B6120B3490A0
:10023F000065E0C43354E024104404FF1208829098
:10024F000069E0FEA3E0FF90006CE02F90006BE0F0
:10025F003EC394085035E490006FF0A3F09000690E
:10026F00E0FEA3E0FFC3900070E09F90006FE09E60
:10027F004003020324900066120871900070E0049E
:10028F00F0700690006FE004F080D290006BE0FEFB
:10029F00A3E0FFC3E49FF074089E90006BF0E4901E
:1002AF00006FF0A3F090006BE0FEA3E0FFC390009F
:1002BF0070E09F90006FE09E5016900066120871DC
:1002CF00900070E004F0700690006FE004F080D5AD
:1002DF00D2B6C2B6E4FFFE120B34900065E0C43311
:1002EF0054E024104404FF120882900069E0FEA33A
:1002FF00E0FFC3900070E09F90006FE09E5016905B
:10030F000066120871900070E004F0700690006FA4
:10031F00E004F080D5D2B6900069E0FEA3E0FF9034
:10032F00006EE02FF090006DE03EF0900065E0FF72
:10033F0090006D7D24120A1C900065E0FF7B207DEC
:06034F00017C00020A6AB5
:100AA400C2B27FC87E00120A84D2B27FC87E00120E
:0E0AB4000A847F2E7E00120B56EF30E0F522F2
:10055C00E4F97D80FFFE120B427F0A7E00120A84B2
:10056C007B017A00794E900067E4F0A37404F07F6D
:10057C00017E0012092A7B017A007944900067E41D
:10058C00F0A37404F07F057E0012092A7B017A0027
:10059C00793E900067E4F0A37406F07F097E0012A8
:1005AC00092A7B017A007958900067E4F0A374045F
:1005BC00F07F0F7E0012092AE4F9AF017B027D1E49
:1005CC007C00120A6AAF017D1F7C00120A6A09E9DD
:1005DC00B408E77DD07C077F197E00120B147D08D0
:0705EC007F1B7E00020B42A1
:1004A200900058E004900062F0900059E00490003F
:1004B20063F090005AE004900064F090005BE00466
:1004C200900065F07B017A0079627D0C7C00E4FF8C
:1004D2001209947B01E4FDFCFF120A6A7D017C0093
:1004E200E4FF120A6A7F057E00120A847D037C0003
:1004F200E4FF120AE8EF6413600E7B107D017C00BA
:10050200E4FF120A6A7F00227B047D017C00E4FF83
:03051200120A6A60
:10051500E4900066F07D02FCFF120AE8EFF0600B44
:10052500E0FB7D027C00E4FF120A6A7F057E001273
:100535000A84900066E030E3037F00227D067C009C
:10054500E4FF120AE8EFF460C77B107D017C00E44C
:06055500FF120A6A7FFF9D
:01055B00227D
:1009F000900063EFF07B1E7A007D127C00E4FF1212
:100A00000A23E0701690003CE0FEA3E07C00240086
:0C0A1000FBEC3EFA7D04E4FF120A2322F6
:10095F00900062EFF07B01E4FDFC120A6A120A6458
:10096F007F057E00120A84900062120AE2EF641380
:10097F006006120A627F0022900062E0FF7B041281
:05098F000A667FFF2253
:1008E700900062EFF07B01E4FDFC120A6A120A64D1
:1008F7007F057E00120A84120ADFEF64136002800C
:1009070019900062E0FF7B02120A667F057E0012E3
:100917000A84120ADFEF64146006120A627F00225B
:030927007FFF222D
:1009C200900062EFF07B02E4FDFC120A6AE0FF1B7A
:1009D200120A667F057E00120A84900062120AE201
:0E09E200EF64226006120A627F00227FFF226D
:10067F007F177E00120B56EF30E06E7D027C00E498
:10068F00FF120AE8900062EFF0FB7D027C00E4FFAE
:10069F00120A6AE0FD30E007900056E04402F0EDE8
:1006AF0030E1157B107D017C00E4FF120A6AE4FF44
:1006BF001209F0E4900056F0900062E0FD30E4077C
:1006CF00900055E04402F0ED30E207900055E04411
:1006DF0001F0900062E030E3107B107D017C00E4BC
:1006EF00FF120A6AE4900056F07F177E00120B5635
:0606FF00EF600302067F1C
:0107050022D1
:030000000205F303
:0C05F300787FE4F6D8FD75810702063A17
:10035500E709F608DFFA8046E709F208DFFA803E8A
:1003650088828C83E709F0A3DFFA8032E309F60877
:10037500DFFA8078E309F208DFFA807088828C83DF
:10038500E309F0A3DFFA806489828A83E0A3F60893
:10039500DFFA805889828A83E0A3F208DFFA804C6D
:1003A50080D280FA80C680D4806980F28033801044
:1003B50080A680EA809A80A880DA80E280CA8033AD
:1003C50089828A83ECFAE493A3C8C582C8CCC58325
:1003D500CCF0A3C8C582C8CCC583CCDFE9DEE780F5
:1003E5000D89828A83E493A3F608DFF9ECFAA9F074
:1003F500EDFB2289828A83ECFAE0A3C8C582C8CCCA
:10040500C583CCF0A3C8C582C8CCC583CCDFEADEE2
:10041500E880DB89828A83E493A3F208DFF980CC44
:1004250088F0EF60010E4E60C388F0ED2402B4043D
:100435000050B9F582EB2402B4040050AF232345E4
:0604450082239003A57361
:10044B00BB010689828A83E0225002E722BBFE02AF
:09045B00E32289828A83E49322E2
:10046400BB010689828A83F0225002F722BBFE0177
:02047400F32271
:10047600C5F0F8A3E028F0C5F0F8E5821582700211
:060486001583E038F022AE
:10048C00A3F8E0C5F025F0F0E58215827002158323
:06049C00E0C838F0E82280
:1005FF00020706E493A3F8E493A34003F68001F205
:10060F0008DFF48029E493A3F85407240CC8C333FC
:10061F00C4540F4420C8834004F456800146F6DFCB
:10062F00E4800B0102040810204080900B71E47EDF
:10063F00019360BCA3FF543F30E509541FFEE493C0
:10064F00A360010ECF54C025E060A840B8E493A387
:10065F00FAE493A3F8E493A3C8C582C8CAC583CAB2
:10066F00F0A3C8C582C8CAC583CADFE9DEE780BE6A
:010B7900007B
:00000001FF
