:100AC9000D0A57656C636F6D6520546F205969581D
:0A0AD900696E456C6563210D0A008B
:0B0B350012055C1204A2E4FF0209BFDD
:10078A0090004E74C0F0A374A8F0A37401F0A3F013
:10079A0090004474FFF0A3F0A3F0E4A3F090003EAD
:1007AA00740CF0A37429F0A374ABF0A3747CF0E486
:1007BA00A3F0A304F090005874C0F0A374A8F0A3A7
:1007CA007401F0A374C7F090003C7413F0A374880A
:0707DA00F0E4900057F0224B
:10087200900056E0703D900057E0700BFF1208B6F2
:10088200BFFF0280118027900057E0B40111E4FFFE
:1008920012092EBFFF079000567401F022800FE468
:1008A200FF120991BFFF079000567403F022E490F3
:0408B2000056F022DA
:05082A00900062EFF0F8
:10082F007B017A007900120003900063EEF0A3EFD2
:10083F00F0900063E0FEA3E0FF781E7C007D017B5B
:10084F00017A007900120425900062E0FF7B017AA3
:10085F0000791EA3E0FDA3E0900069CDF0A3EDF0B9
:03086F000201CFB4
:10070600E4900060F0A3F012078A120A73120B3508
:1007160012087212067F900055E0FF30E00A54FE80
:10072600F0E4FF12082A804CC3900061E094B89070
:100736000060E0940B403D900056E06403702E90FC
:100746000055E054FDF0781E7C007D017BFF7A0A9F
:1007560079C97E007F171204257B017A00791E90E5
:100766000069E4F0A37417F0E4FF1201CFE49000EF
:1007760060F0A3F0900061E004F07094900060E0F7
:0407860004F0808C6F
:100A5300E4FDFCE4FBFAC3EB9FEA9E50070BBB00EB
:0F0A6300010A80F20DBD00010CED64054C70E43A
:010A72002261
:080B400041005703410056007B
:040A9100FF1208093F
:100A9500E4FFC2B7FED2B7EF25E0FFA2B4E4334FBF
:080AA500FFC2B70EEEB408ED2C
:010AAD002226
:1007E100E0FBA3E475F00112048CA9F0FA12044BAA
:1007F100FF120809900072E0FBA3E475F0011204F6
:080801008CA9F0FA12044BFF70
:10080900E4FEC2B7EFA806088002C333D8FC30E77C
:1008190004D2B58002C2B5D2B70EEEB408E4C2B7AD
:0108290022AC
:080AFB00AB07C2B6AE04AF0563
:0E0B0300AD07AC06ECFF120809AF05020809A9
:100B1100AB05C2B6120B037F05120809AF03120819
:040B210009D2B6221D
:100AE300AB05AA04C2B6120B037F06120809AE02B5
:080AF300AF03120B03D2B6227F
:0B08F900900064EBF0A3EAF0A3E9F02C
:10090400C2B6120B037F04120809E4FDFCD3900065
:1009140068E09D900067E09C400D9000641207F829
:090924000DBD00010C80E6D2B605
:01092D0022A7
:080A31007B10E0FF7D017C0059
:100A3900AA07120AFDEAC43354E024084405FF1248
:0A0A49000809AF03120809D2B62213
:0709EB00E0FAA3E0FB7C0031
:1009F200A907120AFDE9C43354E024084406FF1291
:0C0A02000809AE02AF03120B03D2B622AB
:10096300900071EFF0A3EBF0A3EAF0A3E9F0120A11
:10097300FD900071E0C43354E024084407FF1208DB
:0E09830009A31207E19000721207E1D2B6221A
:0F0B2500C2B6120B037F01120809120A95D2B64D
:010B3400229E
:090AAE00900062E0FF7D037C0072
:100AB700120AFBEBC43354E024084401120A91D212
:010AC700B678
:010AC800220B
:100A0E00120AFBEBC43354E024084402120A91ADDF
:100A1E0007ED7D00FC120A95ED2FFDE43CD2B6FEEB
:020A2E00AF0512
:010A300022A3
:10000300900066EBF0A3EAF0A3E9F0900065EFF04F
:100013007D267C00120A0E900069EEF0A3EFF04EED
:100023007003FEFF22D390006AE094B4900069E06D
:10003300940540077405F0A374B4F0900065E0FFE5
:100043007D287C00120A0E90006BEEF0A3EFF0A364
:10005300EEF0A3EFF0EE5407FE90006BF0A3EFF089
:10006300C2B6120B03900065E0C43354E02418FFBA
:10007300120809900069E0FEA3E0FF90006CE02FF6
:1000830090006BE03EC394085050E490006FF0A3DF
:10009300F0900069E0FEA3E0FFC3900070E09F9042
:1000A300006FE09E400302019B120A95900071EFDE
:1000B300F0900066E0FBA3E0FAA3E0F9EF1204641A
:1000C300900067E475F001120476900070E004F08C
:1000D300700690006FE004F080B790006BE0FEA321
:1000E300E0FFC3E49FF074089E90006BF0E490007F
:1000F3006FF0A3F090006BE0FEA3E0FFC3900070ED
:10010300E09F90006FE09E5031120A95900071EFCE
:10011300F0900066E0FBA3E0FAA3E0F9EF120464B9
:10012300900067E475F001120476900070E004F02B
:10013300700690006FE004F080BAD2B6C2B6E4FF56
:10014300FE120B03900065E0C43354E02418FF1241
:100153000809900069E0FEA3E0FFC3900070E09FF0
:1001630090006FE09E5031120A95900071EFF0906D
:100173000066E0FBA3E0FAA3E0F9EF120464900049
:1001830067E475F001120476900070E004F07006E5
:1001930090006FE004F080BAD2B6900069E0FEA34D
:1001A300E0FF90006EE02FF090006DE03EF09000D5
:1001B30065E0FF90006D7D281209EB9000657B40A0
:0B01C300120A33900069E0FEA3E0FF89
:0101CE00220E
:1001CF00900066EBF0A3EAF0A3E9F0900065EFF082
:1001DF00E4FDFC120AB7EF540F64226028E0FF7BA6
:1001EF00017A00795C7D0C7C00120963900052E06B
:1001FF00FEA3E07C002400FBEC3EFA900065E0FFDC
:10020F007D101209F2900065E0FF7D247C00120A38
:10021F000E90006BEEF0A3EFF0A3EEF0A3EFF0EE75
:10022F005407FE90006BF0A3EFF0C2B6120B0390D1
:10023F000065E0C43354E024104404FF1208099011
:10024F000069E0FEA3E0FF90006CE02F90006BE0F0
:10025F003EC394085035E490006FF0A3F09000690E
:10026F00E0FEA3E0FFC3900070E09F90006FE09E60
:10027F0040030203249000661207F8900070E00418
:10028F00F0700690006FE004F080D290006BE0FEFB
:10029F00A3E0FFC3E49FF074089E90006BF0E4901E
:1002AF00006FF0A3F090006BE0FEA3E0FFC390009F
:1002BF0070E09F90006FE09E50169000661207F856
:1002CF00900070E004F0700690006FE004F080D5AD
:1002DF00D2B6C2B6E4FFFE120B03900065E0C43342
:1002EF0054E024104404FF120809900069E0FEA3B3
:1002FF00E0FFC3900070E09F90006FE09E5016905B
:10030F0000661207F8900070E004F0700690006F1E
:10031F00E004F080D5D2B6900069E0FEA3E0FF9034
:10032F00006EE02FF090006DE03EF0900065E0FF72
:10033F0090006D7D241209EB900065E0FF7B207D1E
:06034F00017C00020A39E6
:100A7300C2B27FC87E00120A53D2B27FC87E001270
:0E0A83000A537F2E7E00120B25EF30E0F52285
:10055C00E4F97D80FFFE120B117F0A7E00120A5314
:10056C007B017A00794E900067E4F0A37404F07F6D
:10057C00017E001208F97B017A007944900067E44F
:10058C00F0A37404F07F057E001208F97B017A0059
:10059C00793E900067E4F0A37406F07F097E0012A8
:1005AC0008F97B017A007958900067E4F0A3740491
:1005BC00F07F0F7E001208F9E4F9AF017B027D1E7B
:1005CC007C00120A39AF017D1F7C00120A3909E93F
:1005DC00B408E77DD07C077F197E00120AE37D0802
:0705EC007F1B7E00020B11D2
:1004A200900058E004900062F0900059E00490003F
:1004B20063F090005AE004900064F090005BE00466
:1004C200900065F07B017A0079627D0C7C00E4FF8C
:1004D2001209637B01E4FDFCFF120A397D017C00F5
:1004E200E4FF120A397F057E00120A537D037C0065
:1004F200E4FF120AB7EF6413600E7B107D017C00EB
:10050200E4FF120A397F00227B047D017C00E4FFB4
:03051200120A3991
:10051500E4900066F07D02FCFF120AB7EFF0600B75
:10052500E0FB7D027C00E4FF120A397F057E0012A4
:100535000A53900066E030E3037F00227D067C00CD
:10054500E4FF120AB7EFF460C77B107D017C00E47D
:06055500FF120A397FFFCE
:01055B00227D
:1009BF00900063EFF07B1E7A007D127C00E4FF1243
:1009CF0009F2E0701690003CE0FEA3E07C002400EA
:0C09DF00FBEC3EFA7D04E4FF1209F2225A
:10092E00900062EFF07B01E4FDFC120A39120A33EB
:10093E007F057E00120A53900062120AB1EF641313
:10094E006006120A317F0022900062E0FF7B0412E3
:05095E000A357FFF22B5
:1008B600900062EFF07B01E4FDFC120A39120A3364
:1008C6007F057E00120A53120AAEEF64136002809F
:1008D60019900062E0FF7B02120A357F057E001246
:1008E6000A53120AAEEF64146006120A317F002220
:0308F6007FFF225F
:10099100900062EFF07B02E4FDFC120A39E0FF1BDC
:1009A100120A357F057E00120A53900062120AB1C5
:0E09B100EF64226006120A317F00227FFF22CF
:10067F007F177E00120B25EF30E06E7D027C00E4C9
:10068F00FF120AB7900062EFF0FB7D027C00E4FFDF
:10069F00120A39E0FD30E007900056E04402F0ED19
:1006AF0030E1157B107D017C00E4FF120A39E4FF75
:1006BF001209BFE4900056F0900062E0FD30E407AD
:1006CF00900055E04402F0ED30E207900055E04411
:1006DF0001F0900062E030E3107B107D017C00E4BC
:1006EF00FF120A39E4900056F07F177E00120B2597
:0606FF00EF600302067F1C
:0107050022D1
:030000000205F303
:0C05F300787FE4F6D8FD75810702063A17
:10035500E709F608DFFA8046E709F208DFFA803E8A
:1003650088828C83E709F0A3DFFA8032E309F60877
:10037500DFFA8078E309F208DFFA807088828C83DF
:10038500E309F0A3DFFA806489828A83E0A3F60893
:10039500DFFA805889828A83E0A3F208DFFA804C6D
:1003A50080D280FA80C680D4806980F28033801044
:1003B50080A680EA809A80A880DA80E280CA8033AD
:1003C50089828A83ECFAE493A3C8C582C8CCC58325
:1003D500CCF0A3C8C582C8CCC583CCDFE9DEE780F5
:1003E5000D89828A83E493A3F608DFF9ECFAA9F074
:1003F500EDFB2289828A83ECFAE0A3C8C582C8CCCA
:10040500C583CCF0A3C8C582C8CCC583CCDFEADEE2
:10041500E880DB89828A83E493A3F208DFF980CC44
:1004250088F0EF60010E4E60C388F0ED2402B4043D
:100435000050B9F582EB2402B4040050AF232345E4
:0604450082239003A57361
:10044B00BB010689828A83E0225002E722BBFE02AF
:09045B00E32289828A83E49322E2
:10046400BB010689828A83F0225002F722BBFE0177
:02047400F32271
:10047600C5F0F8A3E028F0C5F0F8E5821582700211
:060486001583E038F022AE
:10048C00A3F8E0C5F025F0F0E58215827002158323
:06049C00E0C838F0E82280
:1005FF00020706E493A3F8E493A34003F68001F205
:10060F0008DFF48029E493A3F85407240CC8C333FC
:10061F00C4540F4420C8834004F456800146F6DFCB
:10062F00E4800B0102040810204080900B40E47E10
:10063F00019360BCA3FF543F30E509541FFEE493C0
:10064F00A360010ECF54C025E060A840B8E493A387
:10065F00FAE493A3F8E493A3C8C582C8CAC583CAB2
:10066F00F0A3C8C582C8CAC583CADFE9DEE780BE6A
:010B480000AC
:00000001FF
