:100AFC000D0A57656C636F6D6520546F20596958EA
:0A0B0C00696E456C6563210D0A0057
:0B0B68001205621204B0E4FF0209EA6B
:1007900090004E74C0F0A374A8F0A37401F0A3F00D
:1007A00090004474FFF0A3F0A3F0E4A3F090003EA7
:1007B000740CF0A37429F0A374ABF0A3747CF0E480
:1007C000A3F0A304F090005874C0F0A374A8F0A3A1
:1007D0007401F0A374C7F090003C7413F0A3748804
:1007E000F090004874C0F0A374A8F0A37401F0A3C3
:1007F00074BEF090004C7417F0A37470F090005722
:040800007401F0226D
:10089500900056E0703D900057E0700BFF1208D9AC
:1008A500BFFF0280118027900057E0B40111E4FFDB
:1008B500120987BFFF079000567401F022800FE4EC
:1008C500FF1209BCBFFF079000567403F022E490A5
:0408D5000056F022B7
:05084D00900062EFF0D5
:100852007B017A007900120003900063EEF0A3EFAF
:10086200F0900063E0FEA3E0FF781E7C007D017B38
:10087200017A007900120433900062E0FF7B017A72
:1008820000791EA3E0FDA3E0900069CDF0A3EDF096
:030892000201D68A
:10070C00E4900060F0A3F0120790120AA6120B6896
:10071C00120895120685900055E0FF30E00A54FE51
:10072C00F0E4FF12084D804CC3900061E094B89047
:10073C000060E0940B403D900056E06403702E90F6
:10074C000055E054FDF0781E7C007D017BFF7A0A99
:10075C0079FC7E007F171204337B017A00791E909E
:10076C000069E4F0A37417F0E4FF1201D6E49000E2
:10077C0060F0A3F0900061E004F07094900060E0F1
:04078C0004F0808C69
:100A8600E4FDFCE4FBFAC3EB9FEA9E50070BBB00B8
:0F0A9600010A80F20DBD00010CED64054C70E407
:010AA500222E
:080B7300410057034100560048
:040AC400FF12082CE9
:100AC800E4FFC2B7FED2B7EF25E0FFA2B4E4334F8C
:080AD800FFC2B70EEEB408EDF9
:010AE00022F3
:10080400E0FBA3E475F00112049AA9F0FA1204596A
:10081400FF12082C900072E0FBA3E475F0011204AF
:080824009AA9F0FA120459FF31
:10082C00E4FEC2B7EFA806088002C333D8FC30E759
:10083C0004D2B58002C2B5D2B70EEEB408E4C2B78A
:01084C002289
:080B2E00AB07C2B6AE04AF052F
:0E0B3600AD07AC06ECFF12082CAF0502082C30
:100B4400AB05C2B6120B367F0512082CAF03120890
:040B54002CD2B622C7
:100B1600AB05AA04C2B6120B367F0612082CAE022B
:080B2600AF03120B36D2B62218
:0B095200900064EBF0A3EAF0A3E9F0D2
:10095D00C2B6120B367F0412082CE4FDFCD39000B6
:10096D0068E09D900067E09C400D90006412081BAC
:09097D000DBD00010C80E6D2B6AC
:01098600224E
:080A64007B10E0FF7D017C0026
:100A6C00AA07120B30EAC43354E024084405FF12E1
:0A0A7C00082CAF0312082CD2B6229A
:0E0A1700E0FEA3E07C002400FBEC3EFAE4FFCE
:100A2500A907120B30E9C43354E024084406FF1229
:0C0A3500082CAE02AF03120B36D2B62222
:08091C007B017D0C7C00E4FF6F
:10092400900071EFF0A3EBF0A3EAF0A3E9F0120B4F
:1009340030900071E0C43354E024084407FF1208E7
:0E0944002CA3120804900072120804D2B622EE
:0F0B5800C2B6120B367F0112082C120AC8D2B691
:010B6700226B
:090AE100900062E0FF7D037C003F
:100AEA00120B2EEBC43354E024084401120AC4D278
:010AFA00B645
:010AFB0022D8
:100A4100120B2EEBC43354E024084402120AC4AD45
:100A510007ED7D00FC120AC8ED2FFDE43CD2B6FE85
:020A6100AF05DF
:010A63002270
:10000300900066EBF0A3EAF0A3E9F0900065EFF04F
:100013007D267C00120A41900069EEF0A3EFF04EBA
:100023007003FEFF22D390006AE094B4900069E06D
:10003300940540077405F0A374B4F0900065E0FFE5
:100043007D287C00120A4190006BEEF0A3EFF0A331
:10005300EEF0A3EFF0EE5407FE90006BF0A3EFF089
:10006300C2B6120B36900065E0C43354E02418FF87
:1000730012082C900069E0FEA3E0FF90006CE02FD3
:1000830090006BE03EC394085050E490006FF0A3DF
:10009300F0900069E0FEA3E0FFC3900070E09F9042
:1000A300006FE09E400302019B120AC8900071EFAB
:1000B300F0900066E0FBA3E0FAA3E0F9EF1204720C
:1000C300900067E475F001120484900070E004F07E
:1000D300700690006FE004F080B790006BE0FEA321
:1000E300E0FFC3E49FF074089E90006BF0E490007F
:1000F3006FF0A3F090006BE0FEA3E0FFC3900070ED
:10010300E09F90006FE09E5031120AC8900071EF9B
:10011300F0900066E0FBA3E0FAA3E0F9EF120472AB
:10012300900067E475F001120484900070E004F01D
:10013300700690006FE004F080BAD2B6C2B6E4FF56
:10014300FE120B36900065E0C43354E02418FF120E
:10015300082C900069E0FEA3E0FFC3900070E09FCD
:1001630090006FE09E5031120AC8900071EFF0903A
:100173000066E0FBA3E0FAA3E0F9EF12047290003B
:1001830067E475F001120484900070E004F07006D7
:1001930090006FE004F080BAD2B6900069E0FEA34D
:1001A300E0FF90006EE02FF090006DE03EF09000D5
:1001B30065E0FF90006DE0FAA3E0FB7D287C001270
:1001C3000A259000657B40120A66900069E0FEA351
:0201D300E0FF4B
:0101D5002207
:1001D600900066EBF0A3EAF0A3E9F0900065EFF07B
:1001E600E4FDFC120AEAEF540F64226028E0FF7B6C
:1001F600017A00795C7D0C7C00120924900052E0A3
:10020600FEA3E07C002400FBEC3EFA900065E0FFD4
:100216007D10120A25900065E0FF7D247C00120AFD
:100226004190006BEEF0A3EFF0A3EEF0A3EFF0EE3B
:100236005407FE90006BF0A3EFF0C2B6120B369097
:100246000065E0C43354E024104404FF12082C90E7
:100256000069E0FEA3E0FF90006CE02F90006BE0E9
:100266003EC394085035E490006FF0A3F090006907
:10027600E0FEA3E0FFC3900070E09F90006FE09E59
:10028600400302032B90006612081B900070E004E6
:10029600F0700690006FE004F080D290006BE0FEF4
:1002A600A3E0FFC3E49FF074089E90006BF0E49017
:1002B600006FF0A3F090006BE0FEA3E0FFC3900098
:1002C60070E09F90006FE09E501690006612081B2B
:1002D600900070E004F0700690006FE004F080D5A6
:1002E600D2B6C2B6E4FFFE120B36900065E0C43308
:1002F60054E024104404FF12082C900069E0FEA389
:10030600E0FFC3900070E09F90006FE09E50169053
:10031600006612081B900070E004F0700690006FF3
:10032600E004F080D5D2B6900069E0FEA3E0FF902D
:10033600006EE02FF090006DE03EF0900065E0FF6B
:1003460090006DE0FAA3E0FB7D247C00120A259064
:0D0356000065E0FF7B207D017C00020A6C49
:100AA600C2B27FC87E00120A86D2B27FC87E00120A
:0E0AB6000A867F2E7E00120B58EF30E0F522EC
:10056200E4F97D80FFFE120B447F0A7E00120A86A8
:100572007B017A00794E900067E4F0A37404F07F67
:10058200017E001209527B017A007944900067E4EF
:10059200F0A37404F07F057E001209527B017A00F9
:1005A200793E900067E4F0A37406F07F097E0012A2
:1005B20009527B017A007958900067E4F0A3740431
:1005C200F07F0F7E00120952E4F9AF017B027D1E1B
:1005D2007C00120A6CAF017D1F7C00120A6C09E9D3
:1005E200B408E77DD07C077F197E00120B167D08C8
:0705F2007F1B7E00020B4499
:1004B000900058E004900062F0900059E004900031
:1004C00063F090005AE004900064F090005BE00458
:1004D000900065F07A00796212091C7B01E4FDFC52
:1004E000FF120A6C7D017C00E4FF120A6C7F057E1E
:1004F00000120A867D037C00E4FF120AEAEF64130F
:10050000600E7B107D017C00E4FF120A6C7F0022EC
:0B0510007B047D017C00E4FF120A6CFC
:10051B00E4900066F07D02FCFF120AEAEFF0600B3C
:10052B00E0FB7D027C00E4FF120A6C7F057E00126B
:10053B000A86900066E030E3037F00227D067C0094
:10054B00E4FF120AEAEFF460C77B107D017C00E444
:06055B00FF120A6C7FFF95
:010561002277
:1009EA00900063EFF07B1E7A007D127C00E4FF1218
:1009FA000A25E0701790003C7D04120A1790004CFB
:0D0A0A007D10120A177A00794812091C228B
:10098700900062EFF07B01E4FDFC120A6C120A662C
:100997007F057E00120A86900062120AE4EF641354
:1009A7006006120A647F0022900062E0FF7B041257
:0509B7000A687FFF2229
:1008D900900062EFF07B01E4FDFC120A6C120A66DB
:1008E9007F057E00120A86120AE1EF641360028016
:1008F90019900062E0FF7B02120A687F057E0012F0
:100909000A86120AE1EF64146006120A647F002263
:030919007FFF223B
:1009BC00900062EFF07B02E4FDFC120A6CE0FF1B7E
:1009CC00120A687F057E00120A86900062120AE401
:0E09DC00EF64226006120A647F00227FFF2271
:100685007F177E00120B58EF30E06E7D027C00E490
:10069500FF120AEA900062EFF0FB7D027C00E4FFA6
:1006A500120A6CE0FD30E007900056E04402F0EDE0
:1006B50030E1157B107D017C00E4FF120A6CE4FF3C
:1006C5001209EAE4900056F0900062E0FD30E4077C
:1006D500900055E04402F0ED30E207900055E0440B
:1006E50001F0900062E030E3107B107D017C00E4B6
:1006F500FF120A6CE4900056F07F177E00120B582B
:06070500EF60030206850F
:01070B0022CB
:030000000205F9FD
:0C05F900787FE4F6D8FD7581070206400B
:10036300E709F608DFFA8046E709F208DFFA803E7C
:1003730088828C83E709F0A3DFFA8032E309F60869
:10038300DFFA8078E309F208DFFA807088828C83D1
:10039300E309F0A3DFFA806489828A83E0A3F60885
:1003A300DFFA805889828A83E0A3F208DFFA804C5F
:1003B30080D280FA80C680D4806980F28033801036
:1003C30080A680EA809A80A880DA80E280CA80339F
:1003D30089828A83ECFAE493A3C8C582C8CCC58317
:1003E300CCF0A3C8C582C8CCC583CCDFE9DEE780E7
:1003F3000D89828A83E493A3F608DFF9ECFAA9F066
:10040300EDFB2289828A83ECFAE0A3C8C582C8CCBB
:10041300C583CCF0A3C8C582C8CCC583CCDFEADED4
:10042300E880DB89828A83E493A3F208DFF980CC36
:1004330088F0EF60010E4E60C388F0ED2402B4042F
:100443000050B9F582EB2402B4040050AF232345D6
:0604530082239003B37345
:10045900BB010689828A83E0225002E722BBFE02A1
:09046900E32289828A83E49322D4
:10047200BB010689828A83F0225002F722BBFE0169
:02048200F32263
:10048400C5F0F8A3E028F0C5F0F8E5821582700203
:060494001583E038F022A0
:10049A00A3F8E0C5F025F0F0E58215827002158315
:0604AA00E0C838F0E82272
:1006050002070CE493A3F8E493A34003F68001F2F8
:1006150008DFF48029E493A3F85407240CC8C333F6
:10062500C4540F4420C8834004F456800146F6DFC5
:10063500E4800B0102040810204080900B73E47ED7
:10064500019360BCA3FF543F30E509541FFEE493BA
:10065500A360010ECF54C025E060A840B8E493A381
:10066500FAE493A3F8E493A3C8C582C8CAC583CAAC
:10067500F0A3C8C582C8CAC583CADFE9DEE780BE64
:010B7B000079
:00000001FF
