:020000020000FC
:040000001FC073C0EA
:10003C00CC27DD270FE50DBF02E00EBFD6D000E4C4
:10004C000BBF12E815BF109300701093007212E0F2
:10005C0017BB55D216B31170103009F423C069D2F6
:10006C0016D3B2D29927BB2779D27894923090F4D8
:10007C0073D18CD0022FE3D1D5D0012FD3D076D130
:10008C0093D0022FDCD1CED0012FCCD07BD10ED38C
:10009C000DD3EACF12E018BB4CD2F9D2AED266D255
:1000AC006BD0FECFCFD06FD259D226D0FFD2FED29A
:1000BC00FDD2FCD2FBD2F8943CD2E9D291D230E8FA
:1000CC002ED14CD20BB1007831F42DD0EFD23CD0E4
:1000DC00EDD2F8CFFFCFD3D012D15BD1F3CF939524
:1000EC0001D01895943608F408959927B43608F47D
:1000FC00B39508959927FDCF442755270024E0E0B8
:10010C00F0E0C6E0D6ED3591430F501D2197D9F79D
:10011C0050D22CD2052F93D155D05DD0042F8FD136
:10012C0051D059D00895B3D219D286D21FD22ED025
:10013C00B9D1022F99D11AD065E21ED2B7D2B6D25C
:10014C00B5D2FDD18FD20895A2D208D27FD20ED2D1
:10015C002BD0022F89D10AD06FED0ED263E40CD2D2
:10016C00A5D2A4D2A3D2EBD17DD2089568D1602FB1
:10017C0003D2612F01D20895F1D14CD2F7D1092FBE
:10018C0073D15DD11FD04FD2F1D1089533241124F6
:10019C00222704E620910070231720F433940A954B
:1001AC00C9F708951394FBCF33241124222704E6B6
:1001BC0020910072231720F433940A95C9F70895FF
:1001CC001394FBCF0F931F93602FD6D1612FD4D1F3
:1001DC000F911F9108950F931F93F02E012F22D092
:1001EC000F2D20D00F911F91089500E000BD09E163
:1001FC0009B908E10AB906E800BD08951A950DD0B1
:10020C0001930D3011F01A95D1F700E00083089599
:10021C000BB10078E9F30CB10895FADF0F9302D01B
:10022C000F9108950CB90BB10072E9F30895059183
:10023C00003011F0F7DFFBCF08950AE0F3DF0DE09B
:10024C00F1DF0895FADFEAE5F2E0F1DF0895452EDB
:10025C00522E4D6F6E69746F72696E67205379738D
:10026C0074656D2056322E300A0D4279204761722A
:10027C00790A0D313633303738330A0D0000DDDFA3
:10028C00E4E9F2E0D4DF08950A0D436F6E66696706
:10029C002E204D6F64653A0A0D54202D2054656D47
:1002AC00657261747572650A0D48202D2048756D54
:1002BC0069646974790A0D53205858202D205365B0
:1002CC0074732061206E6577207472696D206C6583
:1002DC0076656C00B2DFEAEEF2E0A9DF08953F0A22
:1002EC000D00ABDFE0E0F3E0A2DF15E0E0E6F0E0CC
:1002FC0085DF08954D6F6E69746F723E00009DDF4F
:10030C00E2E2F3E094DF15E0E0E6F0E077DFE0E630
:10031C00F0E000810895436F6E66696723008DDFFE
:10032C0035DFECE4F6E083DF0DE37CDF00E27ADF1F
:10033C00022F85D077DF012F75DF7FDF35DFE0E619
:10034C00F6E075DF0DE36EDF00E26CDF022F77D095
:10035C0069DF012F67DF0895F3E0ECE668DF0895AD
:10036C005B2848756D69646974793A00F3E0E0E8DC
:10037C005EDF0895292C2854656D70657261747563
:10038C0072653A00F3E0E8E952DF0895295D0A0D41
:10039C000000043531F0083411F10335A9F19ADF6E
:1003AC0008954BDFF6E0E0E642DFFEDE022F47D099
:1003BC0039DF012F37DF01D008953FDFF6E0E6E7A4
:1003CC0036DF012D3CD02EDF012F2CDFF6E0E8E8E4
:1003DC002EDF032D34D026DF012F24DF08952DDFEF
:1003EC00F6E0ECE424DFD2DE022F29D01BDF012F54
:1003FC0019DFE3DF08959DD04AD17EDE90DF93DED6
:10040C0055D1A2DE53D1089501910191003209F02A
:10041C000895112701910A3378F4003368F00DD058
:10042C00000F000F000F000F11911A3328F4103336
:10043C0018F003D00123302F08950053089511278D
:10044C00F02E06950695069506950F7020E3020F83
:10045C000A3310F027E0020F0F930F2D1395113074
:10046C00A1F31F910F9108951F9311270A5010F0BB
:10047C00105FFCCF065F010F1F9108952A3148F1E0
:10048C00233348F12D3448F1263648F1203848F111
:10049C00293948F1233B48F12C3C48F1263E48F1E0
:1004AC002F3F58F52133A8F02034A8F02035A8F0C0
:1004BC002F35A8F02F36A8F02F37A8F02F38A8F03A
:1004CC002F39A8F02F3AA8F02F3BA8F02F3CA8F416
:1004DC00089520E0FDCF2AE0FBCF24E1F9CF2EE1F7
:1004EC00F7CF28E2F5CF22E3F3CF2CE3F1CF26E4CC
:1004FC00EFCF20E5EDCF2AE5EBCF23E6E9CFCCD04B
:10050C0018E31093002009E0BED018E310930020EC
:10051C0009E0B9D01CE01093002009E0B4D011E040
:10052C0010930020B4D016E01093002009E0ABD05B
:10053C000895ADD011E010930020A9D008950ED0ED
:10054C00F5E0E2E513D020202020202020202020E0
:10055C00202020202020000001D0089510EC09E07C
:10056C0092D01093002009E08ED0089565916030F0
:10057C0011F002D0FBCF08951F93609300211AEF66
:10058C0082D01F91089509E07ED008D010EC09E0CC
:10059C007AD01093002009E076D00895F5E0EEEAC9
:1005AC00E5DF4E2E412E4D2E53797374656D000090
:1005BC00089509E068D0F5E0E6EC436865636B7379
:1005CC00756D3D240000089509E05DD0F5E0EEED79
:1005DC00CDDF4D6F6E69742E204D6F6465000895EC
:1005EC0009E051D0F5E0E6EFC1DF436F6E66696755
:1005FC002E204D6F64650000089509E044D0F6E0AC
:10060C00EEE02021556E617574686F72697A6564CD
:10061C000000089509E037D0F6E0E8E2456E746515
:10062C00723A0000089509E02ED0F6E0EAE3207457
:10063C00696D65730000089509E025D0F6E0ECE4DF
:10064C0048756D69646974792000089509E01BD0C0
:10065C00F6E0E0E654656D70657261747572652044
:10066C0000000895F6E0E6E781DF20483A00012D0E
:10067C007DDD60E281DFF6E0E8E878DF204C3A00CF
:10068C00032D74DD089500000A95E9F70895B1E093
:10069C00ACE71197F1F70895B7E2A0E11197F1F7E4
:1006AC000895B4E0A2EE1197F1F70895BFEFAFEF04
:1006BC000000000000000000000000001197C1F7CE
:0C06CC0000001196BF3FE1F70895000008
:00000001FF
